:020000042000DA
:1000000021482249086006C881F308881047204823
:10001000006800282FD10DA40ECC002902D000F0DA
:1000200012F8F9E71B491C4A002000E001C1914287
:10003000FCD11A4988471A4988471A49884700BE9F
:10004000FDE701C901C29A42FBD37047607A0020E4
:10005000607A0020687B002000000420000004205B
:1000600000000420001004200010042000100420D0
:100070000000000070470C4802F016FF0047EFF345
:100080000580C0B2704700000001002008ED00E0CC
:10009000000000D0687B0020D4EB0020C1160020B7
:1000A000890500208D16002057560000060052508A
:1000B000ABB360534574002006005250861C030207
:1000C00050740020060052505422A29D61740020FA
:1000D000F2EB8871487A0020607A00204C00002002
:1000E00090A31AE7000000000000000000000000DC
:1000F0000000000000000000000000000000000000
:10010000002004200F000020C3010020C5010020B2
:10011000C1010020C1010020C1010020C101002057
:10012000C1010020C1010020C1010020C701002041
:10013000C1010020C1010020C9010020CB01002025
:10014000CD010020CD010020CD010020CD010020F7
:10015000CD010020CD010020CD010020CD010020E7
:10016000CD010020CD010020CD010020CD010020D7
:10017000CD010020CD010020CD010020CD010020C7
:10018000CD010020CD010020CD010020CD010020B7
:10019000CD010020CD010020CD010020CD010020A7
:1001A000CD010020CD010020CD010020CD01002097
:1001B000CD010020CD010020CD010020CD01002087
:1001C00000BE00BE00BE00BE00BE00BEFFF757FF6F
:1001D000103800BED02330B5002400211B061C5768
:1001E0000568EFF3108372B62A68002AFCD0BFF3CB
:1001F0005F8F057902687F2D06D90471BFF35F8F89
:10020000116083F3108830BDBFF35F8F116083F3FB
:10021000108820BFE4E7030010B50068EFF31084F6
:1002200072B60268002AFCD0BFF35F8F04229A5690
:10023000002A0CDAD0220120120612681A711B68FB
:10024000BFF35F8F00221A6084F3108810BD081E70
:10025000F5D000200A60F2E7F7B51E00036804003D
:100260001700002B05D17A21164B174A174801F0C9
:100270000FFAD0231B061B6801932168EFF310834C
:1002800072B60A68002AFCD0BFF35F8F217900257F
:1002900022687F2908D901992171BFF35F8F15600A
:1002A00083F310880120FEBDBFF35F8F156083F3D9
:1002B00010883800310000F0D3FE0028DDD028007F
:1002C000F1E7C046C26D0020156E00208A6D002047
:1002D00013B50400684601F041F8009A019B200024
:1002E000FFF7BAFF16BD000010B50168EFF31083E9
:1002F00072B60A68002AFCD0BFF35F8F02797F2AAA
:1003000005D9A921074B084A084801F0C1F9FF2285
:1003100002710268BFF35F8F0021116083F31088C0
:1003200040BF10BDD66D00200A6E00208A6D0020EF
:1003300030B50224030010008A1891420ED1042225
:10034000D968114211D11022D9681142FCD104227E
:10035000D96811420BD101221A6230BDDD682542F5
:10036000FCD00D7801319D60E7E79968E8E799686E
:10037000EEE7FC23DB00C9001940D208C0080A439D
:10038000C00210437047F0B5050A85B0040CEDB209
:100390000190E4B203AE002D0BD134707470B470D0
:1003A00072783078B37812021B041043184305B0FA
:1003B000F0BD01AB1F782B21B8B202F0C1FD2B219B
:1003C00080B249424143CF1906214F43FF23BFB2B8
:1003D0003900DF1B5A1B69437D4309122D12591A3C
:1003E0005B1B624361436343121209121B12C0B2CA
:1003F000D2B2C9B2DBB2042816D806F07FFA0503E0
:10040000090E130023000C0034707370B270C7E73C
:10041000210014001A000B00F6E70B002100140065
:100420000A00F1E721001C001300F9E7F0B593B0D2
:100430000F930023049005910E92019301982838A0
:1004400003F062F8049A059B02F0EDFF04000F9898
:100450000D0003F0CFFB0B0002002900200002F08A
:10046000BBFF00230C900D91029302980026503898
:1004700003F04AF8049A059B02F0D5FF04000E9899
:100480000D0003F0B7FB00270B000200290020003D
:1004900002F0A2FF002334003D000A900B91039369
:1004A00022002B002000290002F0BDFF3200069040
:1004B00007913B003000390002F0B5FF02000B004D
:1004C000089009910698079902F086FF00222D4BAB
:1004D00002F0ECFF00281AD1FF20FA2110AB58706F
:1004E0009870039B4900584302F002FD10AB18704E
:1004F0001098FFF748FF01040202120E090EC0B265
:10050000FFF737FF6B4602009988188929E0089A9F
:10051000099B0698079902F056FF0A9A0B9B02F076
:100520005BFF2200069007912B002000290002F0BB
:1005300053FF32003B0002F076FF0C9A0D9B02F055
:100540004BFFFA22039B060001330F000393520076
:10055000934202D0069C079DA2E76B460022998831
:10056000188906F091F9029B01330293A02B00D069
:100570007BE7019B01330193502B00D05EE713B062
:10058000F0BDC0460000104030B585B01C4803AB3C
:1005900002AA01A900F080F8002804D0039A029969
:1005A000019800F03DF803F028FD05F0A9FF0021B7
:1005B00050230800A02206F0EBF8002006F072F9A4
:1005C00006F07EF900230F4A0F481049FFF72EFF6F
:1005D00006F076F90C4C0D4D002006F063F9200072
:1005E00029000B4B0B4AFFF721FF200029000A4A84
:1005F0000A4B02F018FF04000D0006F061F9EBE76A
:1006000090D00300000080BF7B14AE47E17A943F96
:100610004ED111BE85C04ABFCDCCCCCCCCCCEC3FAA
:10062000F0B585B006000F00039200F005F9041E36
:100630002AD10122154D11002B000520009501F053
:10064000C1F8039B32000121114800933B0001F0E7
:1006500093FB03993000794302F072FC06000D4BC6
:10066000220002210093042001F0ACF833002200A4
:1006700001210520009601F0A5F82B00022221009F
:100680000620009501F09EF805B0F0BD006CDC027C
:1006900000800240001BB700F0B587B00290042034
:1006A00003910492059301F079F9FA21A0268900BB
:1006B00002F046FC3225760046430190FF35174B89
:1006C000174AF318072493420FD9019B013DF61AEC
:1006D000002DF4D128001FE0009B013F1B1B00935D
:1006E000002F06D1013C002CEFD0230027006343EC
:1006F00000933000009902F023FC029B9842EBD15A
:100700000029E9D1FA2301209B005E43039B1E6070
:10071000049B1C60059B1F6007B0F0BD80E5F9FFDE
:10072000804F1200084B8200D218402310B5146885
:10073000C0006340C024234080246401224313602E
:10074000024BC018416010BD04C001400040014090
:100750000123D022834010B51206936205219361D4
:10076000FFF7E0FF10BD0000EFF3108072B6034A00
:100770001368002BFCD0BFF35F8F70472C0100D0B3
:10078000BFF35F8F0022024B1A6080F3108870471E
:100790002C0100D00722CB08C35C01201140884007
:1007A0001840431E9841C0B27047F8B505000C00D0
:1007B0001700FFF7D9FF210006002800FFF7EAFF26
:1007C000002803D02100380000F0E6FF07210123B4
:1007D000E2080C40A340A95C30000B43AB54FFF788
:1007E000CFFFF8BDF7B5050014001F000191FFF71A
:1007F000BBFF0600BC4202D9012464420DE0210087
:100800002800FFF7C7FF002812D10722012322404A
:100810009340E1086A5C13436B543000FFF7B0FF6C
:10082000002C07DA019B002B04D0089800F0B4FFDD
:100830000134DFE72000FEBD024B18688007C00FBF
:100840007047C04600C006400021044B044ABFF375
:100850005F8F02C39342FAD17047C046000100D0B7
:10086000800100D0044A1078431CDBB2172B01D85A
:10087000137070471023FBE7607A002007B5044B24
:100880000100009318221F230248FFF7ABFF0EBDA3
:1008900098690020C07F002030B5084D03006C6AC5
:1008A000012200208C4206D3AD6A10009D4202D284
:1008B000081B431E9841104030BDC0460040054013
:1008C00070B50C000500080000F032FC200000F0BC
:1008D0000FFD2000064900F04FFCFFF7C3FF054B5A
:1008E0002C75C018044B8000A4006860E55070BDF2
:1008F0008D0B00204000003404E800200A4B1868EB
:10090000EFF3108272B601680029FCD0BFF35F8F4D
:100910001B68BFF35F8F0021196082F3108840BF0E
:10092000002000217047C04618EA002010B50029B9
:1009300003D003681B7B8B4205D23B21054B064A43
:10094000064800F0A5FE064B8068C918090140184A
:1009500010BDC046B3690020736C0020D56900202B
:10096000FFFFFF0F70B516000500FFF7DFFF310036
:1009700004002800FFF7DAFF626841680123914212
:1009800005D803D101682268914200D80023D8B26B
:1009900070BD00003F2110B5024B034A034800F030
:1009A00077FEC0460C6A0020446C0020276A0020B5
:1009B00010B5040000F0C8FB002901DAFFF7EAFFD8
:1009C00020606160200010BD0B0010B5002902D02E
:1009D000027B8A4205D26921054B064A064800F08F
:1009E00057FE0321594300680339401810BDC04623
:1009F0006C6A0020C56C0020886A002010B5427B1C
:100A000001238A4204D0FFF7DFFF83785A1E934107
:100A1000180010BDF8B507000D001400FFF7D4FF53
:100A20000600002D05D170210E4B0F4A0F4800F033
:100A30002FFE002C03D171210D4B0B4AF6E7A54286
:100A400003D172210B4B084AF0E721003800FFF771
:100A5000BBFF85703378002B01D13470F8BD437033
:100A6000FBE7C046D26A0020B36C0020886A0020F1
:100A7000E96A0020DC6A0020F0B585B002930CAB77
:100A80001C780DAB1B780700056801920393002CBE
:100A90000BD021002800FFF7B1FF002815D06521F9
:100AA0002B4B2C4A2C4800F0F3FDAC7B002C44D09F
:100AB00021002800FFF788FF4378AB73002B00D19B
:100AC000EB73002383704370037021003800FFF73D
:100AD0002DFF019B21000360029B43600A9B836002
:100AE0000B9BC3602800FFF76FFF002383704370E8
:100AF00003706E7B9E4228D022003100A8686B688C
:100B0000984700281CD0220031002800FFF782FF00
:100B10006E73A64211D1387D019A029B00F076FBDC
:100B2000051E06D0039B002B03D12100386800F07E
:100B300061FD0E9B002B00D01D70200005B0F0BDA4
:100B4000320021002800FFF765FF2600E0E7C046DD
:100B5000F26A0020D16C0020D569002010B5002970
:100B600003D003681B7B8B4205D24021044B054A0E
:100B7000054800F08DFDC0680139401810BDC04621
:100B8000B3690020946C0020D56900200023F0B5E3
:100B900091B00A93764B8200D7580C900EA8FFF7BD
:100BA00007FF0E9B0F9C7A6808930994EFF310835C
:100BB000069372B61368002BFCD0BFF35F8F3D68BD
:100BC0006E7B002E68D031003800FFF7AFFE026860
:100BD0004368040008980999121A8B41002B4FDCD6
:100BE00001D1002A4CD10021280000F0F9FCB042CC
:100BF00005D08C215F4B604A604800F049FDA56834
:100C000022686368E46808920993002D03D190215B
:100C10005B4B594AF0E731003800FFF79FFF03783C
:100C200000200A931B0233433B617B68BFF35F8F55
:100C300000221A60069B83F31088954200D192E04F
:100C40000A9B21001B02334318000B93A847069010
:100C500007917A68EFF310830D9372B61368002B37
:100C6000FCD0BFF35F8F079B002B2CDA3B69002B76
:100C70005BD00B9A934217D09F21424B3E4ABBE771
:100C8000226863680C9800F0C1FA002400230893DE
:100C9000099400242500C8E70024002335000893A8
:100CA000099430003400C0E706980799089A099B18
:100CB000121A8B410999994203D820D1089991427F
:100CC0001DD9FFF767FE069B079A13432DD03B699A
:100CD000002B2AD00B9A934203D0A221294B264AFB
:100CE0008AE70EA8FFF764FE0E980F99069A079BF5
:100CF00012184B419942E4D801D19042E1D8002B1F
:100D0000DFDB002104910131380003910296019448
:100D10000095FFF7B1FE00237A683B61BFF35F8F58
:100D200013600D9B83F3108838E73C68002E05D0D4
:100D300031002000FFF762FE002804D0F721124B9B
:100D4000124A134859E7E17B002903D02000FFF73E
:100D50003BFE467031003800E673FFF7FFFE037874
:100D600001330370D7E7002800D017E711B0F0BDBA
:100D700004E800201A6B0020596C0020D56900207F
:100D8000306B0020396B0020756B0020A66C0020B2
:100D9000886A002010B5094C6368002B09D1102126
:100DA00020682300064A00F0A5FB03212000FFF77E
:100DB00087FD0A21034800F0BBFA10BD647A0020C9
:100DC0006509002018EA0020054810B54368002B8B
:100DD00005D15C21034B044A044800F059FC10BDC6
:100DE000647A0020976B00207D6C0020D56900207C
:100DF000F0B58FB0079327230027060016A90978BE
:100E0000069204AA9B1809911F707268EFF310856F
:100E100072B61368002BFCD0BFF35F8F272304AAA0
:100E20009B180493159B30000193149B0397009328
:100E30000297069A079BFFF71FFE040000208442DA
:100E400004D021003000FFF789FE00787368BFF3FB
:100E50005F8F1F6085F31088002C2CD0272304AAF5
:100E60009B181B78002B29D1000220430FB0F0BD46
:100E700004000D1E0EDA069A079B121BAB411D00E3
:100E8000079B1400AB4203D810D1069BA3420DD997
:100E9000FFF780FD0AA8FFF78BFD0A9A0B9BA418A9
:100EA0005D41AB42F4D801D1A242F1D8002DEFDB75
:100EB00006940795A9E701204042D7E7099B002B3C
:100EC00006D0149B00201599984703000B43CFD1FF
:100ED0000020CBE7F7B505000C004268EFF3108364
:100EE000019372B61368002BFCD0BFF35F8F2F689D
:100EF000E6B231003800FFF781FD2B6900281DD0D4
:100F0000A34206D18521134B134A4900134800F030
:100F1000BFFB31002800FFF721FE240A0378E4B26A
:100F20000020A3420DD13100380000F063FB0028FF
:100F300007D112210A4B084AFF31E7E7A34200D14B
:100F400028616B68BFF35F8F00221A60019B83F3F7
:100F50001088FEBDB86B00202C6C0020D5690020E5
:100F6000DC6B0020F0B587B006000F00FFF787F8B4
:100F7000002802D0264800F00FFC06246442E51742
:100F8000A4197D41BD4206D801D1B44203D8002D39
:100F900003DAFFF7FFFC0024002504A8FFF708FD93
:100FA0000498059922002B00121A8B41002B08DCB3
:100FB00001D1002A05D13000390000F0CFF807B088
:100FC000F0BDFFF701FF002302930193114B2200B4
:100FD00000932B00FFF70CFF0028ECDB200029001A
:100FE000FFF75AFC0028E6D10B4B1868EFF310828C
:100FF00072B601680029FCD0BFF35F8F1B68BFF396
:101000005F8F0021196082F3108820BFE6E7C04699
:10101000DF6B0020FD08002018EA002037B504002F
:101020000D006846FFF7C4FC009A019B20002900D0
:10103000801859418B4204D801D1824201D800293D
:1010400001DAFFF7A7FCFFF78DFF37BDFA2210B5D5
:1010500000239200002102F0B3FDFFF7DFFF10BD77
:101060007FB50C000500FFF7AFFE0023029301934C
:101070000A4B2A0000932300FFF7BAFE061E05DC88
:1010800028002100FFF708FC04B070BD20BFFFF767
:101090009BFE3100FFF71EFFF2E7C046FD0800206F
:1010A000F7B5EFF305823F231A4010000192103884
:1010B000EFF3108772B6184B1B68002BFBD0BFF301
:1010C0005F8F012634008440144D154B6C631B78F0
:1010D0001A00C24094466146002231420AD0114EA5
:1010E000696A8500AE59B1420FD30F4A0C49A34338
:1010F000AA580B70BFF35F8F002307490B6087F37B
:1011000010889A4200D09047F7BD019B07499B0089
:101110005B181C681C60EDE7280100D0004005400A
:10112000BFEB002024EA0020B07F0020D03F054024
:1011300010B50100024A0348FFF737FB10BDC04657
:10114000E66C002073EB0020034B596A0A00986A92
:10115000596A8A42FAD1704700400540054B5A6AE5
:101160008A42FCD38A4202D19A6A824200D37047F3
:101170005A6AF7E700400540F7B504000D00EFF3A9
:101180001083009372B61C4F3B68002BFCD0BFF35A
:101190005F8FA300194E0193002D1BD0200000F09B
:1011A00073FC86420BD03100200000F075FC012159
:1011B000200000F059FC0123A340114A1360114B99
:1011C000019A9D50BFF35F8F00233B60009B83F328
:1011D0001088F7BD0B4BA2009D500122A2400A4986
:1011E00020000B7893430B70310000F07FFC290046
:1011F000200000F039FCE5E7280100D0A110002014
:1012000038600540B07F0020BFEB0020F0B589B00A
:10121000069306000592FFF797FF059B0493069B34
:1012200001938B4203D851D1049B83424ED9EFF3F3
:101230001083079372B6264F3B68002BFCD0BFF398
:101240005F8F0124B440234B234D1B7806990293F2
:101250002343DBB20393039A1E4B1A70059A331D86
:101260009B006C635A511D4AB30099502B6A23426C
:1012700012D12B6C234209D00020BFF35F8F0023D3
:101280003B60079B83F3108809B0F0BDC121144B6C
:10129000144A154800F0FCF9FFF756FF019B8B42FA
:1012A000EAD802D1049B8342E6D8039B029A01202C
:1012B0009342E2D01F23020033409A400B4B2C6232
:1012C0006C631A60034B029A1A70D6E70120DBE7C1
:1012D000280100D0BFEB00200040054024EA002098
:1012E000086D00206A6D0020296D002080E200E07A
:1012F00010B5EFF3108472B60A490B68002BFCD0CE
:10130000BFF35F8F01238340074A084813620278C6
:101310009A430270BFF35F8F00230B6084F3108841
:1013200010BDC046280100D000400540BFEB0020A2
:10133000024BC918890001607047C0464000003464
:101340003F2110B5024B034A034800F0A1F9C04603
:101350000C6A00202D6E0020276A0020F8B50600D8
:101360000F00FFF7F1FE04000D1E01DAFFF7E8FFA2
:10137000FA22002338000021920002F021FC00191B
:1013800069418D42F2D801D18442EFD80029EDDBCA
:10139000306071603000F8BD10B50400FFF762FAEC
:1013A00001002000FFF7C4FFFF232371BFF35F8F0D
:1013B00010BD10B50400FFF755FA01002000FFF73B
:1013C000B7FFFF23A380BFF35F8F10BD034BC91886
:1013D00089000160BFF35F8F7047C0464000003452
:1013E00010B504000120FFF749FA01002000FFF7C3
:1013F000EDFF10BD0B0010B5002902D0027B8A4220
:1014000005D26921054B064A064800F041F903213F
:10141000594300680339401810BDC0466C6A00206B
:10142000246F0020886A0020F8B507000D00140022
:10143000FFF7E0FF0600002D05D170210E4B0F4A8B
:101440000F4800F025F9002C03D171210D4B0B4AF8
:10145000F6E7A54203D172210B4B084AF0E72100C1
:101460003800FFF7C7FF85703378002B01D1347047
:10147000F8BD4370FBE7C046D26A0020126F00201F
:10148000886A0020E96A0020DC6A002070B5060046
:101490000C001500002912D0002A09D0806873685A
:1014A0009847002806D02A0021003000FFF7BCFF33
:1014B000200070BD220029003000FFF7B5FF2C008E
:1014C000F6E770B5002301240500067B437384739F
:1014D000C673A64206D831002800FFF78BFF002311
:1014E000437070BD21002800FFF784FF0134E4B28F
:1014F0004470EEE710B5017342608360FFF7E1FFCF
:1015000010BDF7B505000C1E21D0FFF773FF46781C
:10151000002E1CD031002800FFF76CFF0027437815
:101520002100477028000193FFF764FF320021007B
:1015300047702800FFF7AAFF019904002800FFF771
:10154000E0FF210002002800FFF7A0FF04002000B8
:10155000FEBD0000F8B504000D001700002905D1FC
:1015600038211A4B1A4A1B4800F092F8FFF742FF45
:101570004378002B03D03A21174B154AF3E78378C1
:10158000002B03D03B21154B114AECE701782000DA
:10159000FFF7B7FF0600002F07D0E17B002903D03B
:1015A0002000FFF727FF4570E573002E05D03100BE
:1015B0002000FFF71FFF0023837029002000FFF7A2
:1015C00019FF002343703000F8BDC046DF6E0020D5
:1015D000FF6E0020426E00207A6E00209F6E002079
:1015E00070B5457B0A0029000400FFF7B3FF607364
:1015F000280070BD70B504000D1E3CD0437B8B42AB
:1016000004D10121FFF7ECFF012070BDFFF7F2FECE
:101610000600817800208142F7D02000FFF7EAFE23
:101620000178A94211D173780370002301222900A7
:101630002000B3707370FFF78DFF617B0200814261
:1016400014D16D210D4B0E4A0DE02000FFF7D2FEA4
:101650004178A94202D173784370E6E70029F4D1BA
:10166000084B074A6731084800F012F82000FFF7DE
:101670000DFF6073C8E70800C7E7C046C96E0020C9
:10168000E76E0020C36E0020426E002000BEFDE722
:1016900013B50C001900074B002A01D1064B1A00A4
:1016A0000192009302002300044802F09BFC00BE5C
:1016B000FDE7C046306F0020D87700203D6F002046
:1016C000254B264A70B51A60254E264B264D3360B1
:1016D0001900AA689143FBD1244C254B9C4221D38D
:1016E00000F0E4F8234B3360AB68DB018033FBD1BF
:1016F0004022214B21489A675A671A67DA66204BC5
:10170000984212D3FEF7BBFC002800D000BEFFF7C2
:101710009BF800F01FFBFFF73DFB1A4C1A4B9C4255
:1017200017D370BD08CC9847D7E704000368083486
:10173000002B0BD0012B05D08321144B144A1548E4
:10174000FFF7A6FFFFF735FE2000D8E7FFF724FEDE
:10175000FAE708CC9847E1E700E00040BFCDFBFE88
:1017600000F00040FE7F3C0000C00040547B0020A1
:10177000647B0020FFFFFF0100F00140447B00205C
:10178000547B0020647B0020687B00206C6F00206D
:10179000DA6F0020896F00200FB407B5074802F008
:1017A000EDFB049B002B07D005A91800019102F066
:1017B000F5FB034802F0E2FB00BEFDE7CA6F002024
:1017C000D7770020F0B585B003920A9A05000F0084
:1017D000934205D22D21304B304A3148FFF758FF54
:1017E0000C241A0E1B02029201930A9A00230198FC
:1017F000029901F0E7FB6C432A4B0600E41863688A
:10180000834200D260602B1FDBB20093C023009A9A
:101810009B012343012A30D8012F2ED103221A60C5
:10182000A3683B42FCD0039A236852015A408021AE
:10183000E02349011A40009B21430A60012B09D88B
:10184000032223687B4013400B600123BB40A26846
:101850001342FCD0802380229B01234312011A6093
:101860000198320000230299666001F0ABFB0E4B39
:10187000AD005851012005B0F0BD802212011A6060
:10188000094BAA00D1580029CDD0586901F058FB66
:1018900001300138FDD1C6E7E76F00203B70002022
:1018A000F86F002000800040C47F002037B50C2076
:1018B00000F0DEFAFEF7C0FF00280AD000232B4A12
:1018C0002B489900013388500A2BFAD1294B5362D7
:1018D00037BD294DA86700F033FB0122274B1A6062
:1018E0006B6C012BFCD10322254B1A60AC6B012CD5
:1018F000FCD10225210000950623224A224800F04F
:101900003BFA210000950523204A214800F034FAD3
:10191000204B2900204D009300220420FFF752FFA6
:101920002B002100002200950520FFF74BFF00222D
:101930000F4C1100230000940720FFF743FF002203
:101940002300110000940820FFF73CFF0022094B00
:101950001100009309202300FFF734FF00222B0021
:10196000110000950620FFF72DFFB1E7C47F00208E
:10197000006CDC021BB70000008000403CB000405F
:1019800030B00040002F68590080024000389C1C95
:1019900000C00240001BB70040597307014B800094
:1019A000C0587047C47F0020074B10309B688000F0
:1019B000C150BFF35F8FBFF35F8F0021034B1960EE
:1019C00082F310887047C04600ED00E0240100D08B
:1019D0000388020010B5D90A1C2905D09921054BAE
:1019E000054A0648FFF754FE5B051B15181D101825
:1019F00010BDC0464B7000208F7100206070002029
:101A00000439081A430810B5000B05D08B21044B8C
:101A1000044A0548FFF73CFE0448184380B210BD55
:101A20009D700020837100206070002000E0FFFFA7
:101A300001228240034B1B6813405A1E9341D8B2C7
:101A40007047C04600E100E0002904D0034B186055
:101A5000034B18607047034BFBE7C04680E200E091
:101A600000E100E080E100E00123834010B51800B0
:101A7000FFF7EAFF10BD000001238340014A136015
:101A80007047C04600E200E0024B10309B688000C7
:101A9000C058704700ED00E070B504000D00EFF392
:101AA000108672B60C4A1368002BFCD0BFF35F8F10
:101AB0002000FFF7E9FF094B984207D0A84205D064
:101AC0006E21074B074A0848FFF7E2FD3200290064
:101AD0002000FFF769FF70BD240100D0CD01002078
:101AE000AD7000209E71002060700020F0B50600EF
:101AF00085B00F00EFF31083029372B64E4A13685D
:101B0000002BFCD0BFF35F8F34004C4B10349B682C
:101B1000A200D3580193019A494B9A4267D0BA4226
:101B200000D181E0474D531B2F2B60D83000FFF7C9
:101B30007FFF002103903000FFF796FFBFF35F8F18
:101B4000FEF79DFA002808D0844206D01E213E4BA5
:101B50003E4AFF313E48FFF79BFD01230C21019CCB
:101B60003C4A9C4323005B1B5B415A43120D8C464D
:101B700000230625A1686557B9420ED1002D14DA5D
:101B8000002841D1002B3CD0FF2199713249998026
:101B9000324B19781A70A17125E0002D46DB63469F
:101BA0005D43284923004C19E3E70C206843254F87
:101BB0003B189A68A260DA79E27106229A56A271FD
:101BC0009B797F2B1AD80430C019FFF701FF010061
:101BD000201DFFF715FF0C236B43FF181F4BA08040
:101BE0001A781D70BA7130000399FFF73DFF30007D
:101BF000029A0199FFF7D8FE05B0F0BDBD200002A2
:101C0000E9E70F4B0193C3E7154B1B1B083B5A0831
:101C10001B0B03D09321134B134A9BE7134BA38059
:101C2000134B1343E380DEE70193E0E7A921114B57
:101C3000064A49008EE7C046240100D000ED00E0CE
:101C4000CD0100208C7A0020E3700020707100200C
:101C500060700020AAAA000000BDFFFFB4EB0020C6
:101C6000C67A00209D7000205971002000F0FFFF0F
:101C700000F8FFFF07710020F7B50126294C064345
:101C80000500331B2F2B04D97821274B274AFF311E
:101C900007E0FEF7F4F9002806D1BD21244B234AC2
:101CA00049002448FFF7F4FCEFF3108C72B6224988
:101CB0000B68002BFCD0BFF35F8F204F2A00204B16
:101CC000121B524153431B0DBA685BB20193830050
:101CD000D0580022B0420ED1BA681A48D0501A4BE0
:101CE0001A78AA71019A1A70BFF35F8F00230B60F4
:101CF0008CF31088F7BD06230198E356834208D180
:101D00000C235A43074B9A18FF2393710F4B938070
:101D1000E5E701320C34042AEDD18C210C4B034A47
:101D2000B5E7C0468C7A00200D7100203F7100207D
:101D30003571002060700020240100D000ED00E02B
:101D4000AAAA0000CD010020B4EB002000BDFFFFD7
:101D5000C36E0020054B064A1360064A13605360A9
:101D60009360D3601361536193617047808080807A
:101D700000E400E004E400E0F7B504000C201700E4
:101D80001D000E0001F0DCF82E490190414338009F
:101D900001F0D6F802009823103A5B009A4205D968
:101DA0001621294B294A2A48FFF772FC6B1E062B85
:101DB00003D8089B013B062B03D91921254B234A45
:101DC000F1E7089B9D4203D21F21234B1F4AEAE7FC
:101DD000019B3A099A4203D22221204B1B4AE2E797
:101DE000089B2D041F0323683D43002B0ADA3F2282
:101DF00023681340B34205D1A3681B051B0D834222
:101E000000D1E368164B9C4219D080235B01154A30
:101E100015491360154A13601F008A689743FBD168
:101E2000C023221D9B01134321222660A0601A605B
:101E30002268002AFCDA0822E5601A60F7BD8023D8
:101E40009B01E4E740420F00B87100208C72002033
:101E5000D4710020117200205A720020717200208B
:101E600000C0024000E0004000C0004000F0004020
:101E70008023024A9B000343D362704700800540E1
:101E8000024B1A68024B5A607047C046FCE70020BC
:101E90000080054003008020124AC00510B5124C96
:101EA000106012480460E020114CC004002906D0E4
:101EB0002060002B05D180231B06236010BD10601D
:101EC000F7E7FA208022C00058435204094B9042A1
:101ED00005D21860FFF7D4FF8023DB05EDE7064A43
:101EE0001A60F7E700B00540FCFF01000820014040
:101EF00000A00540FCE70020FFFFFF0070B50400D4
:101F0000100080220A4BD2051A600A4B002C0CD01C
:101F10000125094A2C43DA61084A62401A62596273
:101F20009C620021FFF7B6FF70BDDC61F9E7C04697
:101F300000B0054000800540D3C007B02D3FF84FEA
:101F4000AA22064B12011A602F220549DA60054ABF
:101F500011605A68002AFCDA7047C046004002400F
:101F600000B0FA00006002407047F7B500930B9B89
:101F700004000E0017009B0720D00192099D019AD2
:101F8000099B9818421B002D1AD10B9BC51B9B0760
:101F900023D4FEBD31002020009BA0470135099BC2
:101FA000FA1A0A9B52199D42F4D3099A0A990023FE
:101FB0008A4200D88B1ADB190193DFE7099DEEE70F
:101FC000089B013D585D3100009BA047D7E7020008
:101FD00031002020009BA04701350A9B7819AB42B5
:101FE000F5D8D6E7F0B589B0070010A806781498A0
:101FF000059106920E990F9A139C079383071ED49E
:1020000001250540002C07D0002D05D0002E02D15F
:102010000C23184200D0013C30239C4604E0202AC7
:1020200005D063468B540132129B9342F7D830237C
:102030009C46002D03D0A24201D21F2A19D9C30603
:102040003AD543051AD4002A18D0129B9A4201D0DF
:10205000A24213D1551E012A0FD0119B023A102B18
:102060000FD02A00119B022B21D11F2A0ED86225E6
:102070001BE063468B540132DBE72A00119B102BD7
:10208000F0D183060ED478251F2A0ED90390019231
:1020900000913800079B069A05990294FFF765FFA7
:1020A00009B0F0BD58251F2AF0D88D5401321F2ADF
:1020B000ECD830258D5401321F2AE7D82D25002E6B
:1020C00005D12B25430702D40307DFD520258D54E6
:1020D0000132DBE7F0B597B00A921CAA0B9308CA4D
:1020E0000D001278219C09900C92002B01D1102236
:1020F0009443620501D5002B1FD06122A10600D5B3
:1021000041221E000027D2B20A3A0D9230001E99D9
:1021100000F016FF0D9ACBB29A188446D2B2092964
:1021200001D83033DAB2202006A90918CA551E9A00
:102130007B1C964201D3834213D1209A01930592CE
:102140001F9A0EAB04921E9A009303920C9A2900D8
:1021500002920B9B0A9A09980694FFF743FF17B067
:10216000F0BD1F006646D1E7F0B59BB00D9322ABE2
:102170001B78209D0E932B00219C249F259E0A9066
:102180000B910C92234303D1289A10339A4328923F
:10219000289B5B0504D52A00002322439A422AD0BB
:1021A000289A6123920600D541230022DBB20A3B24
:1021B00009920F933A0033002800210000F002FF3B
:1021C0000F9BD2B2D318DBB29C4610901191092A12
:1021D00002D83032D3B29C4620200AAA1218604698
:1021E000099B099901335054A64204D801D1AF424A
:1021F00001D8202B13D1289A01930692279A12AB6B
:102200000592269A009304920E9A0D9B02920B99C6
:102210000C9A0A980397FFF7E5FE1BB0F0BD109DDE
:10222000119C0993C6E70000F0B595B00E931A9B78
:102230000F920A931B9B0A9A0B930B9B0C900D9188
:102240001000190001F04DF9002811D10122D44BE2
:102250000A980B99524201F03FF9002808D1012257
:10226000D04B0A980B99524201F020F9002813D064
:102270001E9B0A9A04931D9B0D9903931C9B0C981B
:1022800002930B9B009201930F9A0E9B00F0BCF9F6
:102290000200100015B0F0BD002200230A980B992F
:1022A00001F004F9002800D165E18022120694466D
:1022B0000A9B06930B9B6344079380231E9ADB00C3
:1022C0001A4011921E9A1A4201D106231C93069DB0
:1022D000079B069E079F1D4300D151E15800B24B5A
:1022E000400DC01801F010F9B04AB14B01F09BF855
:1022F000B04AB14B01F070F8079BB04A1B031B0BAF
:102300001A4304000D0030001100AD4B002201F013
:102310005AF8AC4AAC4B01F086F802000B002000E2
:10232000290001F059F801F007F9099001F0ECF8E3
:10233000A64AA74B06000F0001F075F80022A54B36
:1023400001F04AF801F0F8F8A34AA44B39001090C4
:10235000300001F068F8060010980F0001F0D4F882
:102360009F4AA04B01F05FF802000B0030003900DB
:1023700001F029F802000B0004000D0001F053F8F1
:10238000220006000F002B002000290001F024F895
:10239000002212901391944B3000390001F025F87F
:1023A0000022924B01F018F802000B0030003900B7
:1023B00001F01BF800228E4B01F00EF802000B001A
:1023C0003000390001F011F80F00802106002200D2
:1023D0002B000020C90500F0F6FF02000B003000C2
:1023E000390000F0F9FF02000B001298139900F079
:1023F000FCFF0022714B00F0EFFF7E4B109C9C46CF
:1024000064440022230501F00EF8069A079B06009B
:102410000F0001F061F800280AD0099B3000013B51
:10242000390009930022714B00F0DFFF06000F0016
:10243000099B05246333C62B00D8A2E01E9B1B0515
:1024400023D533003B4311D0069807996A4A6B4B5A
:1024500001F03AF8002800D197E006980799002289
:10246000674B01F023F8002800D18EE01C9B099AED
:10247000934200DC87E09D1A6B1E1C93802300248E
:102480001E9ADB001A431E9209941D9B00259C4254
:1024900000D21D1B02231E9A1A4010921E9A1A4245
:1024A00003D0634263415B421D40099B002B07D070
:1024B0000698079932003B0000F097FF06900791BD
:1024C000002200230A980B9900F0F0FF002809D0A1
:1024D00080200006844606990A00079961440B0093
:1024E000069207931E9A474B0D99134004931C9B29
:1024F0000C9802930395069A079B009201930F9AFA
:102500000E9B00F081F80200002C00D1C1E61E9B5A
:1025100045209B0600D420300E9B0D990C9D561C27
:10252000A84705230593002303930A330293099BCD
:10253000013CDB0F0193099B0D99DA179D1855405B
:102540000E9B32000C9804940095FFF7C3FD109B7E
:102550000200002B00D19CE60F9BC41A0F9B1A1996
:102560001D9BA34200D894E620200E9B0D990C9D44
:10257000A8470134F2E70A980B99069007919CE668
:10258000099504245AE7002377E71C9B002B00D110
:102590007BE7119B5A1E93411C9AD31A1C9374E734
:1025A000FFFFEF7FFFFFEFFF01FCFFFFFB799F5075
:1025B0001344D33FB3C8608B288AC63F0000F03F66
:1025C0000000F83F61436F63A787D23F71A3790989
:1025D0004F930A400000E03F1655B5BBB16B024077
:1025E000EF39FAFE422EE63F00002C400000244066
:1025F00000001840FF0300002D431CEBE2361A3F99
:1026000080842E41FFF7FFFFF0B59BB0209E219FF5
:1026100009900A910B920C9332003B003000390074
:10262000229C00F05EFF002808D0249B0393239B8C
:10263000029303230193B04B009324E00122300066
:102640003900AE4B524200F031FF002807D0249BE6
:102650000393239B029304230193A94BECE70122EC
:1026600030003900A74B524200F036FF002814D04A
:102670000423249A1A420DD0A34A2499019303916A
:102680002399009202910C9B0B9A0A990998FFF7E3
:102690006CFC1FE003239D4AEFE700223000390065
:1026A0009B4B00F019FF002807D1002230003900B1
:1026B000984B00F0FBFE00280ED0249B009601975B
:1026C0000493239B0B9A03930A990C9B09980294F9
:1026D000FFF7AAFD1BB0F0BD002200233000390037
:1026E00000F0E4FE002877D03B00320000200021FB
:1026F00000F069FE012306000F000D93249B5B058B
:102700006CD52200302112AB203A08940898251A83
:10271000092807D9089819700138089001339042A8
:10272000F4D120253900300000F006FF089B079007
:10273000DA00794B9B185C681B680E930F9400F0CD
:10274000E3FE02000B003000390000F03CFE0E9A60
:102750000F9B00F068FE1090119100F011FF040033
:1027600000F0CEFE02000B001098119900F02BFE35
:1027700000226A4B1090119100F0AEFE00282FD07D
:102780000134200000F0BCFE02000B000E980F99EF
:1027900000F092FE002803D00024079B013307932A
:1027A000089B002B2AD00A26202D47D10323249AE8
:1027B0001340012B00D08BE0239B002B00D187E03E
:1027C0000D9B002B02D10C331A4202D0239B013BFC
:1027D0002393302212AB6FE00D908FE7062490E731
:1027E0000022109811994D4B00F060FE0028D7D1BF
:1027F000002C01D0E307D3D50134D1E7079800F0CE
:1028000083FE02000B003000390000F0DCFD0022E6
:10281000424B06000F0000F049FE00280CD10022B8
:10282000300039003D4B00F057FE002804D1012351
:10283000079A1340D31807930A2438E0089B0CAA80
:10284000013B0893172331009B1820000135EF1836
:1028500000F076FB303139702000310000F070FB61
:10286000092C0CD83020089B12A95B19202D9DD073
:102870006A1C9D4205D12E234B551500DCE7040050
:1028800092E748551500F1E717230CAA9B18079803
:1028900021000135EE1800F02BFB30310798317024
:1028A000210000F025FB0790002800D17EE7202DB5
:1028B000EAD17BE7EA5401352399A94208D9202DB2
:1028C000F8D1249B01950393239B029312ABB3E6AB
:1028D000202DF6D00D9A12AB002A03D02D225A5586
:1028E0000135EEE7249A520701D52B22F7E7249A07
:1028F0001207E6D52022F2E79E720020FFFFEFFFCD
:10290000A2720020FFFFEF7F9972002095720020D5
:1029100065CDCD4165CDCDC1A87200200000E03F5E
:1029200010B5002802D00B684968984710BD000018
:10293000F0B59BB01500209F0D900E910F930029CC
:1029400001D1894B0D9300260BE00F9B01330F93B0
:10295000252816D03200741C2B000D9E0E99B0470E
:1029600026000F9B18780028EFD13200AE4200D32A
:102970006A1E2B0000200E990D9CA04730001BB052
:10298000F0BD00230120082405E02D2A16D0302AAE
:102990000CD103430F910F9A0F99127801312B2A12
:1029A0000FD0F2D8202A0ED0232A0ED010003038B3
:1029B00009282CD800220A240B920EE0022213438D
:1029C000E8E70422FBE72343E4E71022F7E70B9A4A
:1029D0000F906243303A8A180B920F9A1178501C6C
:1029E0000A00303A092AF2D900200F9A0C90117887
:1029F0002E2928D18021C9000B430F990132497833
:102A00000800303809283CD80A218C4615E00020FF
:102A10000B902A2AE8D104CF0B92824204DA0222D8
:102A200013430B9A52420B920F91DDE760460C9ACA
:102A30004243303A8A180C9222001178541C080044
:102A400030380928F2D91078511C6C282CD024D8A1
:102A5000682831D06A2837D011000C784A1C0F92B0
:102A6000782C04D8572C32D8452C5CD056D8731CFF
:102A7000320020000B930E992B000D9CA0470B9E5B
:102A80006FE72A29DFD104CF0C92D2430C99D217D9
:102A900011400F9A0C910232D5E7742801D07A28A0
:102AA000DAD1802252000BE050786C28F9D1C02195
:102AB00089000B43911CD0E75078682802D080220F
:102AC0001343CAE7C021F4E780229200F8E7200010
:102AD00058382028CBD803F01BFF4900CAFFCAFF93
:102AE000CAFFCAFFCAFFCAFFCAFFCAFFCAFF49001E
:102AF000F80049002600E5002600CAFF4900CAFF89
:102B0000CAFFCAFFCAFFCAFF4900B301CAFFCAFF12
:102B10004001CAFF4900CAFFCAFF4900462C00D144
:102B2000BEE0472CA3D1202221009143472904D1A4
:102B300080221201134302229443452C01D120220A
:102B40001343072204930B9B073703930C9B974374
:102B500002930CCF0E99009201930D982B00320036
:102B6000FFF762FBAFE0C046691F0020782C47D01A
:102B7000582C00D178E16F2C00D179E1622C00D182
:102B800078E110229343063A692C03D0642C01D0DB
:102B90000C218B43590501D501218B4380218900EC
:102BA0001940692C01D0642C46D100292AD0072174
:102BB00007378F433C0003CF08930B9B0492079386
:102BC0000C9B0834069300230593CB0F0293CB177D
:102BD0001193109343401493119B4B401593149AF7
:102BE000159B10981199121A8B41009201930E991E
:102BF0002B0032000D98FFF7B7FA06002700B0E669
:102C00001022C5E73C1DD9050DD5396805930B9BEE
:102C1000029204930C9B0393CB0F0193CB17C9181B
:102C20005940009124E03968580601D5C9B2EDE752
:102C30001806EBD509B2E9E700290DD008930B9BE4
:102C4000072107930C9BFC1D069300238C430492E1
:102C5000059302930CCCC8E73C1DD8050FD505930E
:102C60000B9B029204930C9B019103933B6800938E
:102C70002B0032000E990D98FFF72CFABDE739684A
:102C8000580609D5C9B205930B9B029204930C9B7D
:102C9000039300230193C4E71806F4D589B2F2E741
:102CA00020221343072204930B9B073703930C9BAB
:102CB000974302930CCF0E99009201930D982B002D
:102CC0003200FFF7A1FC06004BE602221A401292E6
:102CD00002220124134218D1320005E02B002020EB
:102CE0000E990D9CA0470C9A0B99531C0C939B1B9F
:102CF0008B42F3D30023994201D00B00013BF6181D
:102D00000B9B0224002B00D05C1C01CF731C3200F3
:102D10000C930E992B000D9EC0B2B047129B002B56
:102D200019D00C9A12940AE0531C139320202B0004
:102D30000E990D9EB047129B139A013312930B9B71
:102D400012999942F0D30B9A0023A24200D3131B8D
:102D50000C9AD3180C930C9E03E6390004C9139205
:102D60000C9A1691002A01D10122524213990C00AB
:102D70008A182178002901D0A24214D1139A19008F
:102D8000A41A8022D20011401791134203D00C9A4A
:102D9000944200D9140002221A40189202221342CF
:102DA00017D1320009E00134E3E7531C12932020CD
:102DB0002B000E990D9FB847129AA31B0B99D3189D
:102DC0009942F2D80023A14200D30B1B0134F6181C
:102DD0001C1912960AE00C93129B129A0133199354
:102DE0000E992B000D9FB847199B1293139B129AB3
:102DF0009B1B985C002807D0179B002BECD00C9BEA
:102E00000C9A013B002AE6D1189B002B15D0129A90
:102E100006E0561C2B0020200E990D9FB84732006B
:102E2000129B0B99E31A9B189942F2D80023A142F6
:102E300000D30B1B129AD3181293169F129E90E583
:102E4000212213430593082304930C9B3200039320
:102E5000102302930023019308CF0E9900930D983D
:102E60002B00FFF737F92EE720221343103A8FE6A5
:102E700008228DE602228BE61FB503910121029004
:102E80000093044813004A4202A9FFF751FD05B020
:102E900000BDC0462129002001480421014B1847EC
:102EA000E07A0020C92E0020142310B501001888F4
:102EB00004331B88984710BD162310B501001888ED
:102EC00002331B88984710BDF8B50E000400002798
:102ED0000125B74201D12800F8BD2068FFF7E4FFC3
:102EE00001C4431E9841404205400137F1E700000C
:102EF000124A936F9B0815D29066D166002905D0BF
:102F0000FFE7FFE7FFE7516F106F704704B58021BF
:102F10000906C2175140002800D0C84303F00CFD39
:102F2000002104BDF0B5146E556E576F166FFFF794
:102F3000E3FF1466556657671667F0BD000000D0C2
:102F4000114A936F9B0813D210665166002905D071
:102F5000FFE7FFE7FFE7516F106F704704B50028E8
:102F600001D00020C04303F0E7FC002104BDC046AF
:102F7000F0B5146E556E576F166FFFF7E5FF1466C8
:102F8000556657671667F0BD000000D094464E4A5C
:102F9000926F9208624601D230E0C046F0B54A4EC8
:102FA000B56F6D08FCD3346E756E776F366F00F0B9
:102FB00025F89446444A1466556657671667624674
:102FC000F0BDC0469446404A926F9208624601D2D4
:102FD00058E0C046F0B53C4EB56F6D08FCD3346E7A
:102FE000756E776F366F00F04DF89446364A14666A
:102FF0005566576716676246F0BDC046002B24DB56
:1030000011D000293EDA00B5C943404200D1013158
:1030100000F038F8C943404200D10131DB4352424D
:1030200000D1013300BD002AEBD1002801D10029D5
:1030300005D00020C90FC90701D1C043410800B520
:1030400003F07AFC0022002300BD00B500290ADB52
:10305000DB43524200D1013300F014F8C94340422F
:1030600000D1013100BDC943404200D10131DB43F1
:10307000524200D1013300F005F8DB43524200D147
:10308000013300BD002923D1002B18D1002A0CD018
:10309000BC460D4F38667A6600210023FFE7FFE744
:1030A000FFE77A6F386F67467047002801D00748FE
:1030B000010000B503F040FC0022002300BD020027
:1030C0000B00002000217047000000D0FFFFFFFF31
:1030D000002B00D0BFE0130C28D1002AE7D080B429
:1030E000114F39667A66FFE7FFE730B4040C7B6F57
:1030F000396F1B0423433B667A66FFE7FFE7FFE770
:10310000C04684B27B6F3D6F1B0423433B667A66E7
:10311000FFE7FFE7C04600232C042D0C7A6F386FC1
:1031200000196941B0BC7047000000D0F0B594466A
:103130000025140E01D112020835140F01D112011D
:103140000435940F01D192000235D40F01D1520001
:103150000135D40B0134254F7C66254C3C660E0CA2
:1031600093B2FFE7FFE7FFE73C6F6643360C770358
:10317000BE467343DF0B5B04C01AB941130C7343A3
:10318000DB18C91ACE086643360CB64493B27343B3
:103190001F0F1B01C01AB941130C73431F0B1B05F2
:1031A000C01AB941860D8F023E436643360C092D85
:1031B00024DB520A7243801A7703460A6643360CB0
:1031C00016235B1BDE40DF40BF1964466643821B4B
:1031D0007046043506330100D940A840C01900D319
:1031E0000131A24206D20023F0BD0000000000D051
:1031F000FFFFFFFF121B0130F3D3F1E709277F1B0D
:10320000FE406446A2B27243801A00D20139220CF9
:103210007243130C1204821A99410B007046043554
:1032200013370100F940A840801900D30131002B69
:1032300002D1A2420AD2F0BD013000D30131121BEB
:10324000FAD2013BF8D1A24200D2F0BD013000D346
:103250000131121BF7E7F0B51C0C00D080E00CB474
:1032600000251C0A04D11B02160E33431202083536
:103270001C0B04D11B01160F3343120104359C0BA8
:1032800004D19B00960F334392000235DC0B02D130
:1032900092185B4101351C00971864410134464F78
:1032A0007C66464C3C660E0CFFE7FFE7FFE7C04636
:1032B0003C6F6643360C7703BE4697B27743C01B1C
:1032C00000D20139C01B00D201399FB27743C91B1C
:1032D000C91B170C77437E04FF0B801BB941CE0836
:1032E0006643360C0C2D33DBB644120B1F053A43F4
:1032F0001B0B97B27743C01B00D201399FB27743B3
:10330000C91B170C77433E043F0C801BB941860D47
:103310008F023E43664329277F1BFE400C3D7746C4
:10332000AF40BF1930BCA2B2ABB272437343801A34
:103330009941220C7243130C1204801A9941020025
:103340000B000137001BA941F9D2781E0021F0BD06
:103350000C277F1BFE4077467F0BAF40FF19E0E74D
:1033600000245D1C07D0144F7D663966FFE7FFE738
:10337000FFE7FFE73C6F95B29EB265436643401B93
:10338000B141150C1E0C6543664336042F0C3E43B9
:103390002D04401BB141994204D202000B002000D1
:1033A0000021F0BD01D19042F7D3801A9941013438
:1033B0009942F2D3F6E70000000000D0FFFFFFFFC4
:1033C00048404140484018B41B4B5B68FC460193A1
:1033D00008BD04DF9336002018B4174B1B68FC4669
:1033E000019308BD00DF9D3600209446134A926F7A
:1033F000920809D2624618B40F4BDB68FC46019371
:1034000008BD0CDF553900200C4AF0B5146E556E1E
:10341000576F166F6246FFF7EEFF084A146655664F
:1034200057671667F0BD18B4034B9B68FC460193C1
:1034300008BD08DFF937002014E80020000000D0A4
:10344000FFB550404240504059404B40594000E089
:10345000FFB5154F4C00640D03D0BC4204D10C03E2
:1034600014D80020090D09055C00640D03D0BC428E
:1034700004D11C030AD800221B0D1B0501264B405A
:1034800009D44B4003D58B4200D18242FFBD994203
:10349000FCD19042FFBD0B43DB1803431343F5D02F
:1034A000C9434918FFBD0000FF07000000B5FFF742
:1034B000CFFF804100BDC04600B5FFF7C9FF01D96D
:1034C000002000BD012000BD00B5FFF7B9FF01D904
:1034D000002000BD012000BD00B5FFF7B1FF804115
:1034E00000BD012040054A00121804D85A001218E5
:1034F00001D800207047012070470020704700006D
:103500000021002805D17047C1174840401AFAD061
:10351000C90713B5064B1B6898470CBC441CA24056
:103520001005120B0349091B09051943114310BD6E
:1035300014E900201F04000010B54C00620D802328
:10354000D218DB00D21A5B057E2A10DD9E3A13DA10
:10355000CC170903490819435242D1406400013491
:103560001532202A05DAD0400843604310BD002000
:1035700010BD0846604310BDC80FC018013810BD0B
:1035800018B4044B5B6AFC46019308BD24DF053B7D
:103590000020000014E80020132370B51D78204C93
:1035A000012D0ED100231F499A000133A150202B79
:1035B000FAD11C4BA3641C48FFF776FC1B4B186028
:1035C00070BD012DF5DD1A48FFF776FC060019489D
:1035D000FFF772FC023803789B007F2B05DC322159
:1035E000154B164A1648FEF753F88022310020008A
:1035F00000F0C2FB022DDED1124B1A88B5231B024C
:103600009A4209D1104A114B12889A4204D1104AA9
:10361000104B12889A42CCD00020FEF7BDF8C0466D
:1036200014E80020593600204C33000014E9002033
:103630005344000053460000F87200209E7300209F
:103640005673002054380000D83800004946000066
:103650009C3800005946000007B56046002800D19C
:1036600000BE01880A0A0230DF2AFAD1C9B28208F4
:1036700004D3028840880004104300E00068024A36
:103680005050039007BD000014E800200FB403BCA5
:103690000CBCF0B50124E407634000E0F0B50C0D6C
:1036A000CF0F661E3605891B640503D3C94340420C
:1036B00000D30131640D03D0661CF60A07D0E41B69
:1036C00000207F00791C89078912803C24031D0D8E
:1036D000DF0F6E1E36059B1B6D0503D3DB43524285
:1036E00000D301336D0D03D06E1CF60A07D0ED1B1D
:1036F00000227F007B1C9B079B12803D2D032F1B0C
:10370000661B58D4A446202E46DA20371400BC404D
:103710001D00BD40F24033412A4380185941CB0F70
:1037200005D0C943C0430022644250415141624622
:103730004D0D28D10D0D07D100281FD0241940416F
:103740004941013A0D0DF9D0640006D3013000D390
:103750000131002C01D140084000013A0BD4941CE7
:10376000E40A04D112051144DB071944F0BDD9075E
:10377000204B194300E0D9070020F0BD0029DDD11E
:10378000002CDBD1F0BD0132C6074008CD0728432D
:103790004908002EE1D0D9E73C2E29DA203E4037F7
:1037A0001400BC4000D00124F24014431A00BB4076
:1037B0001C43D317ACE7AC46202F08DA20360400B0
:1037C000B4400D00B540F84039412843A5E73C2FEF
:1037D0000CDA203F40360400B44000D00124F84009
:1037E00004430800B1400C43C117EAE71000190078
:1037F000002494E70000F07FF0B50C0D661E36053E
:10380000891BE60A6405640D02D0651CED0A04D02C
:10381000002001210905803C2403A4461C0D671EDD
:103820003F05DB1BE70A6405640D02D0651CED0A49
:1038300004D0002201231B05803C2403774064440C
:1038400097B484B296B27443070C7E43150C6F4351
:1038500080B26843361802D3012000043F183004B8
:10386000350C00197D41844688B29AB250430C0C45
:1038700062431F0C7C438EB27E43921902D3012611
:103880003604A4191604170C3618674101BC81B21E
:103890009AB25143040C62431B0C5C4380B2584300
:1038A000121802D30120000424181004130C40182D
:1038B00063412D185E410020474106BC88B293B297
:1038C00058430C0C6343120C544389B251435B18A8
:1038D00002D301210904641819041A0C0918624161
:1038E0006D1856410020474118BCF902720D114372
:1038F000F0026A0D1043ED020A0D03D16D1940412B
:103900004941013B124E9B1B7600B3420ED26D0023
:1039100007D30130002671416646354301D1400886
:1039200040001B05C918E4072144F0BD0BDA013340
:1039300006D1013004D101314F0D01D04908F2E721
:10394000E1070020F0BD013631050020EBE7000063
:10395000FF030000F0B51C0D671E3F05DB1BE70AE7
:103960006405640D02D0661CF60A04D0002201230F
:103970001B05803C2403D0252D060026F6432E6629
:103980001E096E66CE0FF619B44649004F0D02D0DF
:103990007E1CF60A03D000200021403F3F033E1B5F
:1039A000B600B444013F7F05C91B49082E6F01369C
:1039B00076089C02950D25437543ED137543AD13B1
:1039C00001356D10F603761B0CB4CC02450D2C436B
:1039D000A2B2B3B25A43270C7B43350C6F43A4B257
:1039E0006C431B1902D3012424043F191C041D0C31
:1039F000A4187D4124196D41009A91B2ACB2614383
:103A0000170C7C432B0C5F4392B25A43A41802D389
:103A100001221204BF182204230C52187B41019C7E
:103A20006C431B19520ED9010A434401A01A81B2FA
:103A3000B2B2514303145A43360C734387B27743EF
:103A4000D617D21900277E4136049B191704160C8D
:103A50007F185E417316ED18F3010026803375411F
:103A6000A90F06D16400690AE8055B0A184309D268
:103A70002FE00422944480337541A90AA8059B0ACB
:103A8000184326D3404149412404009A019B0D006C
:103A90005543641B4343E41A95B286B27543170C31
:103AA0007E43030C5F4392B25A43B61802D30122FD
:103AB0001204BF183204330C52197B4152429C410C
:103AC000002C02D40022013051414008CA071043A3
:103AD000490802B06246D7079210084BD218084B2B
:103AE0009A4203D212058918C919F0BD0020002A94
:103AF00001DC3900F0BD01331905F5E7FD030000D5
:103B0000FE070000002200B5203200F004F8080093
:103B100000BD000000220B150AD410B5944600F039
:103B200031F81414013400DA0021CB17144C20476B
:103B30000020002170476244343A0CD40C2A07DA82
:103B400004009140904052422032D440214310BDA5
:103B5000D843D94310BD203207D40C46944052427A
:103B600020321141D040204310BD0800C917203237
:103B700003D452422032104110BD1800190010BD6C
:103B8000373B00200A0DCC0F531E1B05C91A5205E6
:103B900003D3C943404200D30131520D03D0531C1B
:103BA000DB0A07D0121B00206400611C8907891200
:103BB000803A1203014BD21A70470000FF03000045
:103BC00051434343C9188C46110C83B24B4310B484
:103BD000040C614392B280B2504362431C041B0C3C
:103BE000001910BC59411304120CC0185141614412
:103BF00070470000034BDB6FFC4618477CDF2D3D10
:103C00000020000018E90020132310B527481C7875
:103C1000FFF752F90100012C36D1254C5422200027
:103C200000F0AAF8234A244B12889A421CD1A722FA
:103C30009201224B12889A4216D1214B1A88214BAD
:103C40009A4211D19423204A9B0112889A420BD1A7
:103C50001E4B1A881E4B9A4206D11E4B1E491868ED
:103C60001E4A1523884202D01D48FDF795FD990094
:103C700001336250202BFAD12262E2611948FFF72A
:103C800013F9194B186010BD012CF7DD831E1B784A
:103C90009B007F2B05DC4221144B154A1548FDF78C
:103CA000F7FC8022024800F067F8E7E7534600007F
:103CB00018E90020EE290000C40F0000C20D00002A
:103CC000962B0000C0B50000182B0000CC2A000085
:103CD00010B50000FC2C000051ED8764F93C002079
:103CE000D87700204C33000014E90020B273002084
:103CF0002C740020E673002007B56046002800D130
:103D000000BE01880A0A0230DF2AFAD1C9B282084D
:103D100004D3028840880004104300E00068024A8F
:103D20005050039007BD000018E90020C30FDB07C7
:103D300041000A0E07D0FF2A08D00909054A891850
:103D40001943400770471900002070470249C918FD
:103D5000FAE70000000000380000F07F014804216D
:103D6000014B1847F07A0020C92E0020014B1B6838
:103D700018470000F07A0020014B5B6818470000EC
:103D8000F07A0020030010B5080011001B68984766
:103D900010BD0000F8B50C000021437C05001600A2
:103DA00008008B421ED1110020002B689847F8BDF7
:103DB000002927D0631E5B5C0D3B5A425341DBB2A6
:103DC000625C4F1C0A2A0CD1002B0AD1814203DD10
:103DD000091A2B68201898470D4802212B6898472C
:103DE000380039008E42E3DC86420DDD311A2B6843
:103DF00020189847A419013C23780D3B5A4253419F
:103E00002B74D4E72B7CDBE7002ED0DDF2E7C04635
:103E10008574002070B505000A4B1C68002C01D188
:103E20002C6070BD2368002B0AD0074B1B68002B49
:103E300001D09C4204D12900200004C9FFF7AAFF49
:103E4000E468EBE7EC7F0020F07F00200B6870B5A2
:103E500005000C00802B02D10800FFF7DBFF216872
:103E60004B1C23606418257170BD0000D02337B54A
:103E7000084D1B06280001A91C68FCF7CCF9002896
:103E800007D1019B64B29C4203D02800FCF7A2F941
:103E900001203EBD4C7B002010B50248FCF724FAFF
:103EA00010BDC0464C7B0020F0B585B006000D006B
:103EB0001C000092FFF7DAFF01906B1C03D1300069
:103EC00002F03CFD0500144F002C00D1134F144BA1
:103ED0001C68002C06D1019B002B01D0FFF7DCFFF2
:103EE00005B0F0BD2368002B13D00E4B1B68002BD0
:103EF00001D09C420DD12A0031002000B847009B20
:103F0000002B06D002ABD91D0A23012220000B7022
:103F1000B847E468DDE7C046853D0020953D0020B8
:103F2000EC7F0020F07F002010B50C4C22681300BD
:103F3000002B05D100290AD0002A0CD0D06006E061
:103F4000834205D1002902D1D868D060D96010BD64
:103F50001A00DB68ECE72060F9E7C046EC7F002040
:103F6000054B10B51C68002C00D110BD6368002BF8
:103F700000D09847E468F6E7EC7F002070B50500B4
:103F800002F0DCFC04000100002328000122FFF7FE
:103F90008BFFFFF7E5FF200070BD000070B5A2B0F9
:103FA00004000E00FFF762FF84220021050001A833
:103FB000FFF7DCFE33002200094801A9FEF75CFF91
:103FC000019B0400002B02D001A8FFF723FFFFF79D
:103FD000C7FF002D01D0FFF75FFF200022B070BDAA
:103FE0004D3E00200FB407B504A901C90191FFF7A8
:103FF000D5FF03B008BC04B0184710B500F02EF987
:1040000010BD70470022014B1A707047B5EB0020BD
:104010004B790020FF2B0BD18B79834208D1CB79D0
:10402000012B05D1082A03D98A78024B09301A706E
:104030007047C046B5EB00200120704770B50D1EDB
:1040400022D1124C517910792478090201432800B9
:104050008C421AD15678012E10D19478D27812025F
:104060001443D30502D53500630A9D400848FEF786
:104070001BFF7F210300214028009847022E04D116
:1040800064222900FDF73AFF012070BDB5EB002046
:1040900055420000012303700048704788740020D7
:1040A00048780B788A78000218431204104396224D
:1040B000CB7810B51B060343D200934206D10448C7
:1040C000FEF7F2FE002103000800984710BDC0462D
:1040D0005542000073B5174D04000E00280001A9D9
:1040E000FCF799F8002808D1D0231B061B68019A19
:1040F0009A421BD02800FCF76DF8002001F03EFB2F
:10410000002806D1032464422800FCF7EDF82000C3
:1041100076BD002001F04AFB0028F3D021003200D8
:10412000002001F04FFB041EECD0EDE703246442B5
:10413000EDE7C0461CEA00201F2010B5FDF79CFCEF
:10414000FA200021800010BD10B5064C002120008F
:10415000FCF761F8002804D000F008FF2000FCF70D
:10416000C3F810BD1CEA00203F2110B5024B034AE2
:104170000348FDF78DFAC0460C6A0020BF7400208A
:10418000276A0020F0B5324C87B0039002912000DE
:1041900005A9FCF740F8002808D1D0231B061B68AE
:1041A000059A9A424ED02000FCF714F8002001F046
:1041B000E5FA002848D100200021264B18605960FC
:1041C0003DE0029B00205B1B019301F071FB019B12
:1041D0000400984200DD1C00002C15D0039B220037
:1041E0005919002001F04AFB040000F0BFFE002036
:1041F00001F0FCFAFCF7A8FF164B2D191860596066
:10420000029B9D42DDDB1AE000F0B0FE200001F0D1
:10421000EDFA200001F0B2FA002810D0200001F0E1
:1042200047FB0028ECD1FCF78FFF0A4B1A685B684C
:1042300092197B41994202D8E2D19042E0D90448D8
:10424000FCF752F807B0F0BD00250027024ED7E773
:104250001CEA0020687C002020A1070030B51B4B21
:1042600085B01B7801F0DCFC1F201949FDF714FC18
:1042700001211F20FDF7F8FB1648FDF78DF8FCF72C
:10428000A3FD0400FCF760FF02000B1E01DAFFF73C
:104290006BFFFA200021800012184B41002BF6DB47
:1042A0000021012501910C49200002950091FCF7A5
:1042B0009FFD0400631E9C41E4B2002803D0290046
:1042C0000648FFF731FE200005B030BD5C7A0020C3
:1042D000494100201CEA002039410020007B0020D9
:1042E000004870474A75002000487047F674002067
:1042F00010B5040014480378002B02D1112101F0FD
:10430000CBFF002C0CD1114B114A5A800123C02243
:104310000133DBB20D485B0092001343038010BDF4
:104320000020052CFBD802000A4BA400E4580749E2
:10433000A05CD3B20028EAD0013248800231132AAF
:10434000F6D11300E3E7C046C0EB002036EA0020B8
:10435000090400005C750020F8B57F230340C40900
:104360005D002F4E2F197F01F719B8700120A0436F
:1043700078700020F8709801B983BA778C46DF0016
:104380003018012C10D127497F188762002728197F
:104390004001301880680760BB4209D164013619BA
:1043A0007360214BF360F8BD20497F188760EDE70B
:1043B000581E9B01C000F318012C1AD11C4940184B
:1043C000586261463F233F3189B29943022A00D1A6
:1043D000490018482D1903686D0176195918F360C2
:1043E0000160880609D05421134B144A1448FDF784
:1043F0004FF9144940185860E3E7134843404140DF
:1044000080204001814203D95621104B0B4AEDE731
:1044100092061A4380231B061A4373681A60C2E788
:10442000F47F0020800010500001105084001050D4
:104430000800105000E800207475002083760020EA
:10444000A37500200C00105000001050F7750020DC
:104450000023190010B50948DA00121801339160E1
:10446000D1600F2BF7D1F022920000210448FFF712
:104470007DFC044B044A1A6010BDC0460000105079
:104480003480002000E8002080011050434BF0B53C
:104490001E6880243500640285B0254026420DD078
:1044A00001223F4B0020DA700433DA773D4900F0F7
:1044B000FDFB802225003C4B92021A6510231E4210
:1044C0000CD01D43394B01279B6D039300230293AE
:1044D000039B002B02D0029B202B34D180235B0155
:1044E0001E420ED000241D43304B1C60FFF7B0FF6E
:1044F00001222100200000F0C4FB80222A4B12037D
:104500001A658023DB011E4208D00122042100200D
:104510001D4300F0A5FB1022234B1A6580231B02CC
:104520001E4209D00122052100201D4300F098FB06
:1045300080221D4B12011A65B5422CD029001C485F
:104540007140FDF729F9039B1F421ED0164B029ABA
:104550009F65029B5C08012364009343E418104BA1
:104560006401E418200000F03DFA00280AD001237D
:10457000A28AA17800930023180000F0AAFB200073
:1045800000F0A8F9039BBB430393029B7F00013318
:10459000DBB202939CE705B0F0BDC0469800115015
:1045A000F47F002000001050003011500000115026
:1045B0002876002010B5002806D0B921054B064A00
:1045C00006484900FDF764F801210520FDF74CFA83
:1045D00010BDC0463C76002074760020A3750020F4
:1045E000010010B5002806D0BF21054B054A06483A
:1045F0004900FDF74DF80200044800F0D3F910BD62
:104600003C76002064760020A375002014800020F2
:104610008022024B5202DA647047C04600201150DB
:1046200070B5041E06D04E21154B164A1648FF31B0
:10463000FDF72EF800F028F90C23144D0520AB6788
:104640001349FDF729FA210040221248FFF78EFB9B
:10465000220020004021FFF77FFE22004021802021
:10466000FFF77AFEFFF7F4FE01232B6480239B05FE
:10467000EB64094A094B20001A60FFF7C9FF70BDBF
:104680003C76002096760020A37500200000115093
:104690008D440020F47F002010D0010090001150C4
:1046A0000B785B0605D14B78052B02D18A78014B3C
:1046B0001A6070470000115010B50C00002806D099
:1046C000D6210A4B0A4A0B484900FCF7E1FF0723B1
:1046D0000879CA7849799207194009020143920F73
:1046E000A078FFF739FE012010BDC0463C760020BF
:1046F00056760020A375002010B5FFF7A9FE10BD67
:1047000010B50C0011001A00002806D0BC21094B7E
:10471000094A0A48FF31FCF7BBFF7F2020404000D8
:10472000E409074B00194001C01800F03BF90120D3
:1047300010BDC0463C76002048760020A3750020BE
:10474000F47F00207F22080010B51040CC091142F0
:1047500003D107497D3A121B8A6680224000054B2F
:10476000001940010021C018120100F0B9F810BD75
:1047700000201150F47F00207F22080010B5104067
:1047800011420AD00022C9094000401803494001E3
:104790000818C270024900F0A3F810BDF47F002091
:1047A000FFF7FFFFF8B5828B438A04000F00161C49
:1047B0009A4200D91E1CE178B6B20D009B1B6382A1
:1047C0006B1E9D41012380224B40D200E370637831
:1047D00032436D031543002B0CD1E368B80132005E
:1047E0001818A169FFF7C8FAA3699E1980231B0254
:1047F000A6611D43638A002B02D18023DB011D4388
:10480000002F00D02D042800F8BD0000836870B58B
:104810001B680400002900D01B0C802212029D0599
:1048200013406278AD0D002A11D1002B05D0D7219D
:10483000114B124A1248FCF72BFFA38AEB18A382F4
:10484000A38BAB4201D900236382280070BD002BEB
:1048500003D1DE210B4B094AECE7E36889015918C3
:104860002A00A069FFF788FAA38AEB18A382A3693C
:104870005B19A361E4E7C0469F760020B377002070
:10488000BF7600201377002080230D4A5B0470B5AB
:1048900013600C4A0C4913601C008A689443FBD1D6
:1048A0000A4D210028009C22FFF760FA8022210097
:1048B00052010748FFF75AFA09236B6770BDC046DB
:1048C00000E0004000F0004000C000400000115037
:1048D0000000105000230374438283828361704779
:1048E00010B58368002901D01C682140002A1AD025
:1048F0008024E4001143224215D01A68224209D0D4
:104900007F2281780948CB091140094A9B009A58B7
:10491000FCF742FF074A0A401A60FFE7FFE7FFE79C
:10492000FFE7FFE7FFE78368196010BD30770020DD
:10493000147B0020FFFBFFFF436870B5002180253A
:104940001E680400FFF72EFF134B6D011A6C054320
:104950000023920703D4A2780133D2099B1A628AFA
:10496000002A13D0002B11D101212000FFF71AFFDC
:104970000A4B05431E40A023DB05626833431360E6
:1049800000212A002000FFF7ABFF70BD044B1E4042
:1049900080239B05F1E7C04600001150FFFFFFDFB9
:1049A000FFFFFFAF70B5037C04000D001600002B65
:1049B00009D07F2183780948DA091940084B920011
:1049C000D258FFF70FFB0023A38201336682A56153
:1049D00020002374FFF7B0FF70BDC0464F77002062
:1049E000147B002070B5057C0400002D06D17F23C8
:1049F00081780F4A0F481940FCF7CEFE83680021EA
:104A00001B68FFF703FF63681B685B0006D5A38B79
:104A1000834203D101212000FFF7F8FE638A002BB7
:104A200003D02000FFF788FF0025280070BDC04696
:104A3000147B0020877700200A4A0300002A0BD04D
:104A4000094A1078984205D91820084A434310684B
:104A5000C01870471B1ADBB200208342F9D104480A
:104A6000F7E7C046954000205EEA0020707C0020F9
:104A70006878002070B5050000242000FFF7DCFFF7
:104A80004368280098470C4B01341B78E4B2A342DA
:104A9000F3D20A4C532200212000FFF767F91022BD
:104AA000FF21E01CFFF762F920002022FF211330D4
:104AB000FFF75CF970BDC0465EEA00205FEA0020A7
:104AC00070B505000C001600C86800F0BBFD320090
:104AD00028000021E368984770BD000010B504006D
:104AE000C069EFF3108372B60268002AFCD0BFF3EE
:104AF0005F8F2362200001F05FFBE269236ABFF34E
:104B00005F8F0021116083F31088884204D1A822AE
:104B100002490348FFF766FA10BDC0460B78002033
:104B2000C2770020024B5878431E9841C0B27047AC
:104B30005FEA0020024B18784007C00F7047C0465C
:104B40005FEA0020014B18787047C046B2EA0020A7
:104B5000F8B51B4E0500317800292FD15322194892
:104B6000FFF704F9184C2000FCF716FC174B1C60EB
:104B7000174C20001C30FCF733FC200001F055FBE3
:104B8000144B154F1C60154B002B04D03800FFF759
:104B900081FA134B186000242000FFF74DFF0368D3
:104BA000984701343B78E4B2A342F5D22800FFF7DE
:104BB00037FD2800FFF7FEFC012333700120F8BD0C
:104BC000B2EA00205FEA0020607F0020A87F00207A
:104BD0001C7B0020AC7F00205EEA00209540002076
:104BE000707C00201FB5040040780238032818D8D4
:104BF000194B1A7801F082FE021A0F1701218A431D
:104C00001A701A7849188A431A7000225A700421BF
:104C10001A788A4304E0D20707D5042219780A4398
:104C20001A70210013E0D207F1D41FBD5207FCD542
:104C300004211A7801A88A431A7000210C22FFF778
:104C400095F86A46237801A9137105235371034B24
:104C50001868FFF743FFE8E75FEA0020AC7F002019
:104C60007FB506000D00140000210C2201A8FFF7FB
:104C70007DF86B46210001A81E715D71FFF7B2FF40
:104C80007FBDF0B585B001AC07000E001500002116
:104C90000C222000FFF76AF801232900200027706A
:104CA00063702671FFF79EFF05B0F0BD1FB51400BD
:104CB0006B460022DA806B466A461871062302A80A
:104CC00053710822FFF758F8210001A8FFF78AFF67
:104CD0001FBDF0B587B003AC06000D000092019334
:104CE00008220CAB002120001F78FFF73FF80723B4
:104CF0006370009B39000593019B2000267025718D
:104D00006371FFF76FFF07B0F0BD0000702370B54F
:104D10008A7806000D001A4207D00D4A0D490E4848
:104D2000FFF760F90024200070BD0C4B2800997833
:104D300000F08CFF041E05D1094A06490648FFF71A
:104D400051F9F0E729003000FFF7B6FC0400EAE76C
:104D5000C2040000E8770020C27700205FEA00204C
:104D6000C3040000F7B507000C0000260092019371
:104D7000009BB34201DC01250EE06378052B05D1D1
:104D8000E378019A9B079B0F934207D00F4A104983
:104D90001048FFF727F900252800FEBD2100380044
:104DA000FFF7B4FF051E05D10B4A09490948FFF773
:104DB00019F9F1E7A378DA09012A05D1099A1370E4
:104DC00023780136E418D3E7089AF8E79C0400003A
:104DD000F7770020C27700209D040000F8B57F24FB
:104DE0000C406300154CC909E41864183034E378AA
:104DF000DB07DD0F002B1ED1E3785B07DF0F002BF5
:104E000015DB01210E4E49423068FBF761FAE37869
:104E1000DB07DD0F002B0CD1E3785B0704D4042300
:104E20000125E2781343E3703068FBF75DFA280050
:104E3000F8BD3D00F8E70025F9E7C0465FEA00202D
:104E4000A87F002070B50D0001210F4C4942206859
:104E5000FBF73EFA7F2129404B000C49ED09C918A8
:104E600049193031CB780025DB0708D4CB785B07B4
:104E7000DD0F002B03DA0422CB789343CB7020683C
:104E8000FBF732FA280070BDA87F00205FEA0020FF
:104E900070B57F25104C0D406D006419CE09A41922
:104EA0003034E578ED0706D50C4A0D490D48FFF77B
:104EB00099F8002070BD0125E6782E43E670FFF7D3
:104EC0001FFC0028F6D10422E378AB43E370E378BB
:104ED0009343E370EEE7C0465FEA00200A05000056
:104EE000D9770020C27700207F2310B50B400A4CF1
:104EF0005B00E418CA09A4183034E3789B0709D48E
:104F0000FFF720FC0223E2781343E3700123E278E9
:104F10001343E37010BDC0465FEA00207F2310B545
:104F20000B400A4C5B00E418CA09A4183034E3783B
:104F30009B0709D5FFF720FC0222E3789343E37037
:104F4000E378013A9343E37010BDC0465FEA002066
:104F50007F22CB090A40044952008918C918303110
:104F6000C8788007C00F70475FEA0020F0B58BB0AB
:104F700000F068FE002800D17FE2BD4B1D68E969A2
:104F8000EFF3108372B60A68002AFCD0BFF35F8F7C
:104F900007AC2B622100280001F0EEF8EA692B6AC9
:104FA000BFF35F8F0021116083F31088884200D126
:104FB00063E2607801380728DFD801F0B3FC08000D
:104FC00011009102670276021C00390293022078D8
:104FD000FFF750FD00F02CFB2279A64B9A70CCE72E
:104FE0002078FFF747FD00F023FBA34B002BC4D034
:104FF00000E000BFC1E701219E4D04202B782778F7
:105000000B432B702B0033331A788A431A701A78AB
:1050100082431A702B0034331A788A431A701A7834
:1050200082431A70002000F00DFB60232679334084
:105030000193602B02D1914A91494CE1019B402B95
:105040000CD19048002822D000F0FCFA0021380052
:1050500008AA00E000BF00288FD118E0F606F30E82
:105060000093012B00D16EE1022B00D194E1002BC3
:105070000DD1019B202B14D1237A0F2B07D8EB18CD
:10508000D878FFF7D9FC08AA011E00D09CE107AC34
:1050900020780021FFF756FB80212078FFF752FB94
:1050A0006BE7019B002BF2D160790928EFD801F062
:1050B0002FFC3F013701EEFF2E01EEFF0A00BE007C
:1050C000EEFF1600200008A800F0C2FA3800A1790F
:1050D000FFF786FA02232A7813432B704DE706AABE
:1050E0006B78023213700123380008A900F064FACB
:1050F00043E7A37900936B78009A9A423CD06B788F
:10510000002B07D03800FFF7F7FAAC783800FFF72C
:10511000B1FCAC70009B002B2ED0581EC0B2FFF724
:10512000E3F8002803D043780393022B06D0564AB5
:1051300056495748FEF756FF564A7DE701210400BD
:10514000C2790934931152110B400A4012015B01DC
:1051500013432A782F318A4313432B70C378827804
:105160001B021343C3180493049BA3420CD84A4B5D
:10517000002B01D000E000BF3E4B009A5A7038006F
:1051800008A900F007FAF8E60122637801920B2BD8
:1051900003D1E37801932378E4186378042B01D0DA
:1051A0003E4AC5E70025049B1B1B9BB205932800C4
:1051B000FFF742FC060021003800059AB3689847C3
:1051C000029008282CD9059B834229D3019B012BEF
:1051D00005D1334BB2689A4201D1039B019300225F
:1051E0002448019B9A420ED12B002100029A1330D1
:1051F00000F06AFD029BE4182A4B1B78AB42B3D245
:10520000F322920094E7A378D318DBB2C318D978BD
:10521000FF2901D0244A8BE70132DD70D2B2E0E7EA
:10522000204B01351B78EDB2AB42C0D2E8E7E388F2
:105230001A0A501EDBB20E2800D928E701F068FBDD
:105240000F004200570027FF27FF6000420027FFA2
:1052500027FF27FF27FF27FF27FF27FF3600FFF73E
:105260003FF812230200380008A900F0A5F9F2E681
:10527000AC7F00205FEA0020000000007F020000F9
:1052800045780020000000007B03000032780020F9
:10529000C2770020D3020000000000009603000047
:1052A000755900205EEA0020BD030000914B002BE1
:1052B00000D1ECE600E000BF0200D37891781B0239
:1052C0000B43D0E7022A0AD11800FFF70DF8021E9F
:1052D000F3D1894A89498A48FEF784FED7E6894A8C
:1052E000002A00D1D3E6180000E000BFEFE7180065
:1052F0002189FEF7FDFF021E00D1C8E60378B2E760
:10530000814B002B00D1C2E600E000BFF3E7E38849
:10531000012B00D0BBE62A78073313432B702EE70E
:10532000E388012B00D0B2E608222B789343F5E7FF
:105330002B7806AA980699080223C00F194002325A
:1053400001431180D0E6237A0F2B00D99FE6EB189A
:10535000D878FFF771FB011E00D198E6380008AA43
:10536000FFF7AEFB002800D007E660256022237916
:105370001D40134200D08AE663790A3B012B00D915
:1053800085E6280000F05EF963790A2B00D0F6E686
:1053900006AB9A1C1570A6E67F237021267A33404F
:1053A000F2090E4201D0594A46E65B00ED18AD18ED
:1053B000E87CFFF741FB019B0500002B08D000288B
:1053C00000D164E6010008AA3800FFF779FB42E645
:1053D000637900991A008A43012A0BD0002B00D070
:1053E00055E631003800FFF7B3FD06AB9A1C10807C
:1053F000009B79E6E288002A05D131003800012BB4
:1054000013D1FFF78BFD002D00D1B6E5290008AAC6
:105410003800FFF755FB002000F014F93C4B343303
:105420001B78DB0700D5A8E5A9E6FFF75DFDEAE7F5
:105430007F212579364B29404800EA091B189B1823
:10544000180001263030C278B243C270C2780336E9
:10545000B243C270002906D1290062792078A3687E
:1054600000F004F989E5D87CFFF7E6FA031E06D1BF
:10547000284A29492248FEF7B5FD0BB0F0BD1E6948
:10548000290062792078A368B04776E5204B1A7826
:10549000D20700D471E5214A002A00D16DE51878C1
:1054A0000007C00F00E000BF67E5194B1B78DB0762
:1054B00000D462E51A4B002B00D15EE500E000BF8E
:1054C0005BE52800FFF7B8FA4369002B01D020788C
:1054D00098470135EDB2134B1B78AB42F1D24CE546
:1054E0000025F8E76368002B00D146E5A0689847DF
:1054F00043E5C04600000000140400001B780020B3
:10550000C27700200000000000000000330300000C
:105510005FEA0020370200005D78002000000000F4
:10552000000000005EEA002070B5134B0600D98928
:105530009889421A151C92B2402A00D940251A783F
:10554000ADB27F2A0ED9884211D00C4C2A0099683E
:105550002000FEF711FC802122002B003000FFF715
:1055600097FC70BD884204D100210022F5E780211C
:10557000FBE70021014AF0E74C7F0020687F002014
:1055800049B2C943002310B5C90F1A00C901FFF77A
:105590007FFC10BD70B5074E0500082230000C00DE
:1055A000FEF7EAFB00232800F3602178B360FFF7E1
:1055B000E7FF70BD4C7F0020F7B51A4F14000600BE
:1055C000082238000D000193FEF7D6FB0023BC60D3
:1055D000FB81EB79AA791B02019913431A1C8B42B8
:1055E00001D96A46928891B2BA81002B12D0002963
:1055F00002D07322002C08D03000FFF795FF041E64
:1056000002D001242000FEBD792207490748FEF799
:10561000E9FCF7E730002978FFF7B2FF041EF0D16C
:105620007E22F2E74C7F002095780020C277002090
:1056300010B5142200210248FEF798FB10BDC046A9
:105640004C7F0020014B18617047C0464C7F002002
:1056500010B5054C010008222000FEF78DFB002349
:10566000A360E36010BDC0464C7F0020F8B52D4D0F
:105670001F002B780600DA09C9098A4219D0002FC9
:1056800007D0AB2228492948FEF7ACFC00242000B3
:10569000F8BD274B002B02D02900FFF701F82B693A
:1056A000002B01D10124F2E72A00022130009847A3
:1056B000F8E77F2B06D8A868041EE8D03A001D49F9
:1056C000FEF75AFBAA68EB89D219DB19AA60EA88AF
:1056D0009BB2EB819A4201D03F2F1CD82B69002B43
:1056E0000BD130002978FFF74BFF041EDAD1D82206
:1056F0000D490E48FEF776FCC9E701212A0030006B
:105700009847011EEDD13000FFF71CF880213000D2
:10571000FFF718F8C6E73000FFF706FF041EC1D1F7
:10572000E322E5E74C7F002080780020C27700204C
:10573000A1460020687F002070B5050010350400E8
:10574000280000F00BFD3F2812D90020E178FFF778
:1057500045FB00280CD0280000F000FDE1783F2830
:1057600007D996239B00E21800204023FFF790FB07
:1057700070BD0020FFF766FBFAE7000010B50400DB
:10578000FFF7D0F9002801D1002010BDFFF7D2F9B2
:105790000028F9D1B62001238000444302480019B3
:1057A00000791840F1E7C046747C0020B6239B00C6
:1057B000584310B5024B1030C01800F0B7FC10BDB4
:1057C000747C002070B5B624A40044432000064E2B
:1057D000103092B2801900F0EAFC0500A019FFF722
:1057E000ABFF280070BDC046747C0020F7B50400F4
:1057F000FFF798F9002801D10020FEBDFFF79AF9C4
:10580000051EF9D1B620800044432600184F2C36DF
:10581000F619300000F08AFC0028EDD03B19280072
:1058200099780193FFF7DAFA0028E5D0A6239B00C8
:10583000E418E71939004022300000F0B8FC019B61
:105840000400997800280ED003003A002800FFF7E2
:105850001FFB05002000002DCFD1C82205490648B6
:10586000FEF7C0FBC8E7FFF7EDFA2000C5E7C0462A
:10587000747C0020BD780020C277002070B5B6246B
:10588000A4004443094B2C34E418050092B22000D4
:1058900000F0C2FC0600200000F048FC3F2802D9BE
:1058A0002800FFF7A3FF300070BDC046747C0020C5
:1058B000B6239B00584310B5024B2C30C01800F0A3
:1058C0004DFC10BD747C0020F7B5B622154C0021AC
:1058D00020009200FEF74AFAFF236371124B8027E3
:1058E00000260125E38008237F003A0025812373E9
:1058F0000E492B0000960E4800F0EFFB2B003A00FB
:105900000C4900950C4800F0E8FB0C4D2800FBF713
:1059100043FDA5620A4D66622800FBF73DFD256444
:105920006664F7BD747C002000C2FFFFBC7C0020D1
:10593000847C0020BC7D0020A07C0020BC7E002058
:10594000C47E002010B5052200210748FEF70EFA9C
:10595000064800F06AFC064C200000F066FC0121BD
:10596000200000F07CFC10BD747C0020847C0020B2
:10597000A07C0020F0B585B003904B790024022B69
:1059800043D18B79022B40D12B4EB378A3424CD11B
:105990008B78092433700D784D1903E02B78E418C7
:1059A000A4B2ED186B78242B20D19442F6D96B78F1
:1059B000042B36D16B790A2B33D1204B29780193F4
:1059C0001F4B0398009302238FB21A006918FFF748
:1059D000C9F90E340500A4B2002820D1A12219492A
:1059E00019485200FEF7FEFA2C000EE0052BDED11E
:1059F00029000398FFF78AF9071E09D19922114956
:105A000011485200FEF7EEFA3C00200005B0F0BD50
:105A1000AB7873702B78E418A4B2ED18C7E73C1983
:105A2000A4B23000FFF788FEEFE78F22054952004D
:105A30000548FEF7D7FAE8E7747C0020767C002062
:105A4000777C0020B3780020C2770020F8B50500ED
:105A500060200B001100127800240240202A43D15C
:105A60002A4F4A790E7938781202324390423BD15C
:105A700048782038032837D800F040FF021518383E
:105A8000002B06D107232800214AFFF795FD0124AA
:105A90002AE0022BFBD11F4B002BF8D000201C4921
:105AA000FEF7FEFAF3E7002BF1D1EBE7002B03D171
:105AB0002800FFF76FFDEAE7022BE8D10124CD783B
:105AC0008A7821002D0215432E0013483D71A94309
:105AD00000F0C5FB114B2640002BD8D06A083100DE
